:020000040800F2
:1000000020080020790200082D7000080F27000842
:100010002970000831240008877E000800000000D5
:10002000000000000000000000000000ED7100086A
:100030003524000800000000B570000801730008B6
:10004000930200089302000893020008930200083C
:10005000930200089302000893020008930200082C
:10006000930200089302000893020008930200081C
:10007000930200089302000893020008930200080C
:1000800093020008930200089302000893020008FC
:1000900093020008930200089302000893020008EC
:1000A00093020008930200089302000893020008DC
:1000B000A5750008817600085577000893020008AE
:1000C00093020008930200089302000893020008BC
:1000D00093020008657C0008930200089302000860
:1000E000930200089302000893020008930200089C
:1000F000930200089302000893020008930200088C
:1001000093020008930200082D790008930200086A
:10011000930200089302000893020008930200086B
:10012000930200089302000893020008930200085B
:1001300000F002F800F090F80AA090E8000C824469
:100140008344AAF10107DA4501D100F085F8AFF246
:10015000090EBAE80F0013F0010F18BFFB1A43F0A5
:100160000103184714C0000034C00000103A24BF37
:1001700078C878C1FAD8520724BF30C830C144BF0C
:1001800004680C607047000000230024002500264E
:10019000103A28BF78C1FBD8520728BF30C148BFEA
:1001A0000B6070476E2900F0BB82702900F0E3807D
:1001B00066290AF0168365290AF0138367290AF075
:1001C00010836129AFF3008003681B0A28BF41F048
:1001D0008001692900F06882642900F06582752930
:1001E00000F062826F2900F0AB85782900F0AF80C3
:1001F000E92900F04585E42900F04285F52900F061
:100200003F85EF2900F0A885F82900F0AE8003684B
:10021000DB0928BF41F08001632900F0978673292C
:1002200000F09C86E32900F0A786F32900F0AC8655
:10023000002070471FB500F0E9FD040000200021F8
:1002400009F006FC401C60600020002109F0EAFB78
:10025000E0601FBD10B510BD00F050FF1146FFF764
:10026000E9FF08F03BFA01F0C9F903B4FFF7F2FF28
:1002700003BC07F08BFE000009488047094800478F
:10028000FEE7FEE7FEE7FEE7FEE7FEE7FEE7FEE746
:10029000FEE7FEE704480549054A064B70470000A3
:1002A000057300083101000820020020200800200A
:1002B0002004002020040020704700001CB50C46DC
:1002C000064B7B4469460090204600F050FC0446F3
:1002D0000020694600F05EFC20461CBDCF080000EF
:1002E0000FB4044910B503AA029800F059FC10BCE1
:1002F0005DF814FB1C000020F0B40D4601880905D0
:1003000002D5214C7C4402E01F4C7C440E34002179
:1003100000F1240608E002F00F071209E75D42EA47
:1003200003721B097754491C52EA0307F3D1027880
:100330000023120704D5702D06D009B10223113411
:100340002246F0BC00F057B901231034F8E770B52D
:1003500004460D462146106800F01BF90246294666
:100360002046BDE870400023C6E7D21D22F00703F7
:10037000D3E90023C0E70368126843F02003036059
:100380000823C3610023B7E79ABD00002DE9F05FA1
:10039000894604464FF0000ADFF874B1FB44C0F808
:1003A00020A02046E1688847002874D0252806D080
:1003B000D4E901219047206A401C2062F1E7002621
:1003C0005F462046E16888472028054607DB312D37
:1003D00005D2781910F8200C08B10643F1E7B007F0
:1003E00001D526F00406C4F81CA00027C4F818A004
:1003F0002A2D09D0284607F0C2FD38B304EB870840
:10040000303DC8F8185019E059F8041B204604EB99
:1004100087029161E1688847012F054618D1E0699C
:10042000002820DA26F020061DE0D8F8180000EB9E
:10043000800005EB40003038C8F818002046E1681D
:100440008847054607F09BFD0028EED1012F0AD012
:100450002E2D08D12046E16888477F1C0546022FD3
:1004600046F02006C4DBA069002803DA404246F0CB
:100470000106A061F00701D026F010066C2D0BD00C
:10048000682D09D04C2D39D06A2D35D0742D35D03A
:100490007A2D33D016E038E0E1682F4620468847B1
:1004A000B842054609D16C2F26D04FF48060E16830
:1004B000064320468847054604E06C2F1AD04FF4C7
:1004C000807006430DB3A5F14100192802D82035EC
:1004D00046F400664A462946204626604E46FFF707
:1004E00061FE80B101280BD0F61D26F0070000F157
:1004F000080956E74020E4E78020D8E70020D6E747
:1005000006F104094DE7284652E7206ABDE8F09F4E
:100510002ABD0000704770477047704710B500F063
:1005200079FC006810BD10B5044600F073FC04604F
:1005300010BD70B5044685690068C10601D5302636
:1005400000E02026C00707D070BDD4E90121304665
:100550009047206A401C20626D1EF6D570BD70B5B4
:10056000044685690078C00707D170BDD4E9012130
:1005700020209047206A401C20626D1EF6D570BD79
:1005800009684A0501D540B27047C905FCD500B2DB
:10059000704709684A0501D5C0B27047C905FCD546
:1005A00080B2704770B50C460546012A05D0287800
:1005B000800600D5EA69002302E0012305E05B1C08
:1005C000934202D2E05C0028F9D1A869E618C01A6B
:1005D000A861286A184428622846FFF7AAFF04E0A9
:1005E000D5E9012114F8010B9047B442F8D328460D
:1005F000FFF7B5FF70BD2DE9F0470D4699469246CD
:10060000044600F124080168880604D5E06921F059
:100610001001216000E00120A84201DD471B00E03D
:100620000027A1697A1902EB0900081AA061207855
:10063000C00602D42046FFF77CFF002608E0D4E97C
:1006400001211AF806009047206A401C761C20629F
:100650004E45F4DB2078C0060AD52046FFF769FF37
:1006600006E0D4E9012130209047206A401C206236
:10067000381EA7F10107F4DC07E0D4E9012118F8DE
:1006800005009047206A401C2062281EA5F1010544
:10069000F3DC2046FFF763FF2078000602D5022036
:1006A000BDE8F0870120FBE72DE9F0410646002474
:1006B00010687529314616A510D0FFF761FF002894
:1006C00002DA404213A507E031688A0701D512A576
:1006D00002E0490704D511A5012401E0FFF759FF05
:1006E00000210A2206F1240709E0B0FBF2FCB0FB6E
:1006F000F2F302FB1C00303078541846491C0028E5
:10070000F3D123462A463046BDE8F041FFF773BFD8
:10071000000000002D0000002B0000002000000061
:1007200011680268006A530501D508700AE0D30514
:1007300001D5088006E0130603D5C217C1E90002FF
:1007400000E008600120704770472DE9FF4F0C461C
:100750001E464FF0FF378BB0D2E90001DDF8608014
:100760000A908A46C1F30A5505B93D46002108465C
:100770004FF00000BAF1000F00F4400005DA00EB82
:1007800080004FF4400101EA50004FEA9059B9F15E
:10079000010F00DDB9460A9850EA4A000ED044F62F
:1007A0001050A5F2FF3545432F14B8F1000F1ED0AD
:1007B0007542291E1EDDC9F100021CE0B8F1010FCF
:1007C0004FF0000001D0302103E0F24305E0215456
:1007D000401CB042FBDB30460022002121540B9923
:1007E000C1F80880C1E900200FB0BDE8F08FBD1B43
:1007F0006D1CDEE74A4600DA694206A800F0E8FB15
:1008000006AB93E8070003AB83E8070050460A995C
:1008100001F085F98DE80700A0F500501F38009021
:100820000398002D09DD42F21F014A46084403A93E
:100830000390684601F00FFC08E0A0F500504A461E
:100840001F3803A90390684601F02DFC8DE80700CE
:100850000004000C03D04FF0FF30410800E01046C8
:10086000B8F1000F03D00022009215461EE0751E5D
:1008700005D400F0D3FA303262556D1EF9D5B34677
:100880000122084302D000227F1C04E02078302897
:1008900001D100227F1E002A099786D01DE0112D6C
:1008A00007DA00F0BBFA303262556D1C50EA0102E3
:1008B000F5D1084302D00098C8B10EE00021681EAF
:1008C00005E0235C625C63542254401E491C814253
:1008D000F7DBAB46A81B401E0990002004F80B0074
:1008E0000B98099AC0F80880C0E9002B7CE7112614
:1008F0004FF0000859E72DE9F04F88460446D21D15
:1009000022F0070191B0D1E90001CDE90A0107F019
:10091000BCFA02460B98C00F01D02D2007E02068DA
:10092000810701D52B2002E0202101EAC000032A23
:10093000099001D0072A05DB03464146204600F016
:10094000BBFA0BE12078800601D5E06900E00620C3
:10095000B8F1650F814606D0B8F1660F18D0B8F12E
:10096000670F70D131E00020B9F1110F009001DB69
:10097000112301E009F101030AAA01A90CA8FFF75C
:10098000E4FEDDE90C70002609F10105834647E02D
:1009900001204B4600904FF000470AAA01A90CA87D
:1009A000FFF7D3FEDDE90DB00C995D46002610B9C6
:1009B00009F101000D18B9EB050003D4C0F1FF36B1
:1009C00009F10105A5EB09002BE0B9F1010F01DAEE
:1009D0004FF001090020B9F1110F0090484601DDE8
:1009E000112300E003460AAA01A90CA8FFF7ADFEF7
:1009F000DDE90C704D4600268346207800070AD4B6
:100A0000AB4500DA5D4601A8012D04DD411911F85E
:100A1000011C302907D04F4502DA17F1040F04DA20
:100A2000012082460FE06D1EEEE7002F02DCED1B79
:100A30003E4403E0781CA84200DD7D1CB81B00F199
:100A4000010A4FF000472078000703D4AA4501DBD4
:100A50004FF0FF3A0021B7F1004F0DF143088DF838
:100A6000431024D002202B23002F01DA7F422D23B4
:100A70000A21021EA0F1010000DC5FB197FBF1FC2E
:100A800097FBF1F201FB1C7C17460CF1300C08F8C7
:100A900001CDEEE7A8F1010003702188090501D519
:100AA000452100E06521A0F1010800F8011C09982A
:100AB0000FA9A1EB0807FF1D00B10120411901EBAF
:100AC000EA70A1693844081A401EA0612078C00667
:100AD00002D42046FFF72DFD099828B1D4E9012161
:100AE0009047206A401C20622078C00622D520460C
:100AF000FFF71FFD1EE0002E04DBB34502DD01A859
:100B0000805D00E03020D4E901219047206A401C3C
:100B10002062761CAAF101005FEA000A0AD100F007
:100B200075F9C0680168405CD4E901219047206AEA
:100B3000401C2062281EA5F10105DCDC07E0D4E999
:100B4000012118F8010B9047206A401C2062381ED2
:100B5000A7F10107F3DC2046FFF701FD032011B0E8
:100B600043E6000001694A1C02610878704700B53D
:100B70008FB0CDE901310021059105497944CDE9D6
:100B8000031011466846FFF701FC0FB000BD0000DE
:100B9000E5FFFFFF0A6802F8010B0A6070470000DA
:100BA000074B70B50D467B44FFF7E1FF044628462E
:100BB00000F07CFA10B14FF0FF3070BD204670BDE0
:100BC000437700002DE9FF5F15468A460446DFF8AB
:100BD000AC80F8440027D8E900103E46CDE900106B
:100BE00010E03AF816106A4602A800F063FA411CB9
:100BF00007D02178890603D5E269391891420DD8CA
:100C00000744761C2078800602D5E069B84205DDED
:100C1000AE42E6DB3AF816000028E2D1A069C01B1C
:100C2000A0612046FFF785FCD8E90010CDE900104F
:100C3000002017E03AF818106A4602A800F03AFAC5
:100C4000B0F1FF3F81460BD000250DF1080B05E008
:100C5000D4E901211BF8050090476D1C4D45F7D3E1
:100C600008F10100B0428046E4DB206A384420628B
:100C70002046FFF774FCBDE8FF9F000006B50000AA
:100C80002DE9F0418046D21D22F007020025D2E96D
:100C90000002F52915A614D0011E72F1000106DA32
:100CA0000023D0EB030063EB020211A608E0D8F8A2
:100CB00000108B0701D50FA602E0490701D50EA64B
:100CC00001251146002408F1240704E000F0A6F8ED
:100CD00030323A55641C50EA0102F7D12B463246B5
:100CE00021464046BDE8F041FFF785BC000000000A
:100CF0002D0000002B0000002000000030B4002177
:100D000000F1240408E002F00705D208303542EA79
:100D10004372DB086554491C52EA0305F3D10468A9
:100D2000002310A2250708D504F020040C4304D0AA
:100D3000C46901230CA2641EC46130BCFFF75BBC14
:100D400010B5044621461068FFF723FC02462046F2
:100D5000BDE810400023D1E7D21D22F00701D1E900
:100D60000023CBE700000000300000000FB4002398
:100D700000B589B00CA900910B99CB60204B7B4446
:100D80000693204B7B44079304236FF00042CDE988
:100D900001321D4A7A446B4608920246002009F04F
:100DA00082FD09B05DF814FB70B506464FF0FF30C8
:100DB00015460C46324686B00091CDE901016946E0
:100DC0000020049004A8FFF7D1FF034604982118DF
:100DD00025B108B10A4600E022462A6000280DD05D
:100DE000002B02DD0098884208D03246081B694675
:100DF0000094CDE9010404A8FFF7B8FF06B070BD68
:100E00000F020000270200000F0100000048704799
:100E1000E001002000487047C001002030B5B0F16B
:100E20000A024FEA900E71F100034EEA817EB0EBA8
:100E30000E0061EB91014FEA101E4EEA017E10EBAD
:100E40000E0041EB11114FEA102E4EEA016E10EB2D
:100E50000E0041EB11214FEA104E4EEA014E10EB0D
:100E60000E0041EB1141401841F100014FEAD00062
:100E700040EA41704FEAD10110EB80054FEA81044E
:100E800044EA907444EB01046D1944EB0404521BD2
:100E9000A3414FF0000348BF0A3200D530BD401CCB
:100EA00041F1000130BD10B5044600F04DF9006875
:100EB000005D00F0010010BD2DE9F0411F46044621
:100EC00003260168072A01F4006004DB08B116A5B7
:100ED00005E016A503E008B115A500E015A521F071
:100EE00010002060A069C01EA0610FB1401EA0616B
:100EF0002046FFF71EFB4FB1D4E901213846904749
:100F0000206A401C2062C01C206206E0206AFAE7CA
:100F1000D4E9012115F8010B9047761EF8D220463E
:100F2000FFF71DFBBDE8F0814E414E006E616E0083
:100F3000494E4600696E660010B5436913B1AFF3C0
:100F4000008001E0FFF72EFB012010BD127800F1B8
:100F500024010A7000224A700122EDE711684FF067
:100F6000FF32E9E710B5436913B1AFF3008001E048
:100F7000FFF728FE012010BD128800F124018284B1
:100F80000022C2840122EDE711684FF0FF32E9E749
:100F9000426842B1016811F8013B23B1521EC0E919
:100FA0000012184670470121C160881E70474268D0
:100FB0005AB1C368016843B983688B4205D0491EA2
:100FC000521CC0E90012002070474FF0FF307047FC
:100FD0002DE9F047814616468AB0334878440DC85B
:100FE0008DE80D0030487844801C03AC0DC884E8BF
:100FF0000D0041F69B300844372190FBF1F290FB45
:10100000F1F5A5F1800501FB12041B3C02D56442F9
:10101000012000E00020DFF890A080460027FA447D
:10102000AAF1BE0A0DE0E00709D03246684607EB98
:1010300047010AEB810101F036F88DE807006410E2
:101040007F1C002CEFD1184F7F44AC3F18E0E8071D
:1010500014D007EB04100DF1180A90E80E008AE88E
:101060000E00C068F04201D198190890324606A9D6
:1010700003A801F018F803AB83E807006D10641CA7
:10108000002DE4D132466946B8F1000F03A802D022
:1010900000F0E1FF01E001F006F8C9E90001C9F83C
:1010A00008200AB0BDE8F08780B10000007B00F0A6
:1010B0008000704770B516460C46054600F044F8AF
:1010C000036893F80101012806D0FF2C0FD8185DA2
:1010D00068B101202C7070BDD3F80701324621465B
:1010E00003F2071303442846BDE8704018474FF049
:1010F000FF3070BD00487047C00100207546FFF703
:10110000F9FFAE4605006946534620F007008546C4
:1011100018B020B5FFF7BEF8BDE820404FF000063C
:101120004FF000074FF000084FF0000B21F00701CF
:10113000AC46ACE8C009ACE8C009ACE8C009ACE812
:10114000C0098D467047000010B5FFF75FFE001D17
:1011500010BD00BFFD8800002DE9FF4F064689B095
:101160000878FF2806D0491C2D2805D000244FF010
:10117000000908E000200CE00124F8E709EB8903EE
:10118000491C00EB43090878FF28F7D114B1C9F1D5
:1011900000008146107800252C46AA4629462D28B5
:1011A00001D02B2804D1521C2D2813D000208246B8
:1011B0008B461078FF280FD04FF0000C0A21521CEC
:1011C000A5FB017804FB018105FB0C11C5194BEB54
:1011D0000104EEE70120EAE7002108464FF0000095
:1011E000BAF1000F02D000EB80004008C0F3815834
:1011F000B8F1010F01DD4FF0FF380C9809EB000743
:1012000055EA040009D04FF0020917F5FA7F0BDA0E
:101210004FEACA70C6E900B012E04FEACA70C6E9E8
:1012200000B00DB0BDE8F08FB7F5FA7F0DDDF048E6
:101230007844D0E90010C6E9001040EACA70706036
:10124000FFF7E8FDC0F80090EBE7391E02DAC8F1BD
:10125000000200E0424600DA794206A8FFF7B8FE35
:1012600006AB93E8070003AB83E8070044F23E00B7
:101270005BEA04010090584604D144F21E012C465A
:101280005D460091210C0904014306D10099240414
:1012900044EA15442D041039009104F07F410143C4
:1012A00006D10099240244EA15642D020839009100
:1012B00004F07041014306D10099240144EA1574F9
:1012C0002D01091F009104F04041014306D100990E
:1012D000A40044EA9574AD00891E009104F0004119
:1012E000084304D100986D196441401E00904246A5
:1012F0006846002FCDE9014503A902DD00F0E7FEB5
:1013000001E000F0BCFEBAF1000F04460D4601D02A
:1013100084F0004440F2FF7724F00040284303D0DB
:10132000C4F30A50B84212D1FFF774FDC0F8009020
:10133000C4F30A50B8420AD1AE487844D0E900104C
:10134000C6E9001004F000410843706069E7C6E98F
:10135000005466E72DE9FF4F1F464FF0000A4FF09B
:10136000FF38454691B0D7E90146CDF83CA0FFF7DC
:101370004DFDC0680168405C1090B96912986D1C01
:101380008847396A814688470028F6D1B9F1FF3F7E
:101390000AD0002E24F4D06411DDB9F12B0F08D04F
:1013A000B9F12D0F0BD102E0404615B03AE744F4F5
:1013B0008064B96912986D1C8847761E8146600565
:1013C00004A901D52D2000E02B20002E01F1010BF6
:1013D0000DF130088DF810003FDDB9F1690F08D02C
:1013E000B9F1490F05D0B9F16E0F02D0B9F14E0F26
:1013F0001CD13B4601A8009580E85002DDE912129D
:101400006FF0020009F053FAC11CCED10EE0B969A9
:1014100012986D1C884781461398761E44F4007418
:1014200005600F98401C002E0F9016DDB9F1300FAB
:10143000EDD0B9F1780F02D0B9F1580F0DD10F9856
:1014400001280AD13B46CDE90054DDE91212001F04
:10145000029609F02AFAC11CA7D1109989453ED1FC
:1014600044F0800406E01399681CAAF1010A44F4D0
:1014700000740860B9696D1C1298761E8847302880
:101480008146F0D02BE01099894505D1200603D480
:10149000761E44F0800418E0484606F070FD08B35C
:1014A000761E0DF123018B4544F4007408D2A9F196
:1014B00030000BF8010B200607D5AAF1010003E06C
:1014C000200602D40AF101008246A00502D5139934
:1014D000681C0860B96912986D1C88478146002E07
:1014E000D1DC53E0002E51DDB9F1650F02D0B9F126
:1014F000450F4BD1A00549D5B9696D1C1298761ED0
:1015000024F440748847002E81460CDD2B2804D03B
:10151000B9F12D0F07D144F48074B96912986D1C8C
:101520008847761E8146E00501D52D2100E02B215C
:1015300008F8011BCDF8008021E0761E0DF139017D
:10154000884544F400740CD2A9F1300010F0FF007B
:1015500088F8000002D10099884509D908F10108EE
:1015600006E0E00501D5244801E042F20F70824612
:10157000B96912986D1C8847814613980560002E42
:1015800004DD484606F0FBFC0028D6D1F969129824
:101590008847FF2053468BF8000088F800000020A1
:1015A0000A900B9004AA0CA90AA8FFF7D5FDA00584
:1015B00002D46FF00100F8E614F0240F0AD0E0071F
:1015C00014D13868DDE90A12031D3B600068C0E9E8
:1015D00000120BE00AA9684606F07AFCE00705D184
:1015E0003868009A011D3960006802602846DCE610
:1015F00064AF00005AAE0000F1D8FFFF10B50446FA
:10160000AFF300802046BDE81040FEF72EBE00007C
:101610004FF0013C50F8042B51F8043B9A4221D181
:10162000A2EB0C03934313EACC1317D150F8042B0D
:1016300051F8043B9A4215D1A2EB0C03934313EAF1
:10164000CC130BD150F8042B51F8043B9A4209D12A
:10165000A2EB0C03934313EACC13DBD04FF0000052
:10166000704700BFD01A01BAB1FA81F101F0180138
:1016700022FA01F0CB40C1F12001DBB2C0B2C01AA6
:101680002CFA01F3D11A914311EAC311E6D1704744
:101690002DE9FF4F1F464FF03C0987B04FF0004245
:1016A000DDE9141001F10108DDF858A002EA40500C
:1016B0000390002004908346054604460590B969CE
:1016C000461E08988847AAF1010A0290BAF1000F55
:1016D00037DD02982E2815D0102100F012FA0028CC
:1016E0002ADB4FF0010B0499014316D0B9F1000F2A
:1016F0000BDB4A46C11700F0F1F905430C43A9F191
:10170000040905E00120059007E008B145F0010556
:1017100001200490059800B9361DB969089808F1B0
:1017200001088847BBF1000FAAF1010A0290CDD051
:101730000999C1F80080C9E70298702808D050289C
:1017400006D0F96908988847BBF1000F14D04FE024
:10175000002002900120BBF1000F049009D0B9696C
:10176000089808F101088847AAF10109B9F1000FAA
:1017700007DCF969089888476FF001000BB0BDE8F5
:10178000F08F2B2804D02D280CD14FF0FF3004907F
:10179000B969089808F101088847A9F10109B9F168
:1017A000000FE6DD411CE4D00A2100F0AAF9002870
:1017B000DFDB029908F1010801EB810100EB410038
:1017C0000290B969089888470A2100F09AF9099AA5
:1017D000A9F10109B9F1000FC2F8008001DD00286C
:1017E000E7DAF969089888470499029800FB0166CE
:1017F00055EA040004D004F04041090002D006E09C
:10180000039898E0A40044EA9574AD00B61E04F075
:101810000041080002D16D196441761E159810F040
:10182000240F03D04FF00B095C4803E04FF0280968
:101830006FF07D008246564507DAAAEB060189441F
:10184000B9F1410F01DD4FF0410901200021A9F15B
:10185000010200F043F9024628400B4621400843AC
:1018600001D0012100E00021501E029143F1FF311F
:1018700028402140084301D0012000E000200299C7
:10188000834651EA0B014FD0002108464FF000007B
:10189000039900F4400039B100EB80004FF440019F
:1018A00000EBD07001EA60008015012802DD4FF0E6
:1018B000FF3000E013D0401C36D0029860B3BBF17B
:1018C000000F0CD14A460120002100F007F9284002
:1018D0002140084301D0012000E00020E0B10120B8
:1018E0004A46002100F0FAF8034640190A466141D1
:1018F0002D1A8C4111D3B9F1400F09DD159810F064
:10190000240F02D0AAF1340603E0AAF1170600E082
:10191000761C00254FF0004406E05B1E42F1FF32CA
:1019200020EA030521EA0204CAF10100B04206DA06
:101930001B49039808430190002000900EE0039A91
:10194000C4F3D321E80A0A43164940EA44500A4343
:101950003146CDE90002684606F006FB159810F006
:10196000240F0BD01598C00715D13868DDE9001297
:10197000031D3B600068C0E900120CE002A8694644
:1019800006F0A6FA1598C00705D13868029A011D1D
:101990003960006802604046F0E6000002FCFFFF8C
:1019A0000000F07F0000F03F2DE9FF4F92461D46FA
:1019B00085B04FF00041DDE9124BDDE914727F1E66
:1019C00001EA4B50414940F0FF4940EA010800213B
:1019D00022F020004928049102D04E2828D04CE063
:1019E0003BA0012607C88DE80700A9690698641C7A
:1019F00088477F1E014606D41DF8060018B121F065
:101A0000200181420BD0E96906988847032E34D023
:101A1000082E32D06FF0010009B0BDE8F08F761CBF
:101A2000032E01D0082EE0D1601CCAF80000DCE7CC
:101A3000A9690698641C88477F1E2AD420F02000DC
:101A4000412826D1A9690698641C88477F1E20D4A6
:101A500020F020004E281CD1A9690698641C8847F4
:101A60007F1E48F4002849F48009CAF8004001D4D8
:101A7000282806D0E969069888475FEACB7012D01B
:101A800022E0A9690698641C88477F1E01D40028BB
:101A900003DAE96906988847BCE72928F1D1641C74
:101AA000CAF80040E9E71BF0240F07D02868049922
:101AB000031D2B600068C0E9001805E02868021DBE
:101AC0002A600068C0F800902046A5E70000F07F7B
:101AD000494E46494E49545900000000B2F12003D6
:101AE0000AD5C2F1200301FA02F120FA03F300FA49
:101AF00002F041EA0301704700FA03F14FF00000E1
:101B000070473A2800D2303820F02002412A01D311
:101B1000A2F13700884201D34FF0FF3070475FEAEF
:101B2000400C08BF91F0000F4FEA8C234FEAC1220E
:101B300043EA51514FEA1C5018BF00F5F0404FEAFC
:101B4000300018BF41F000415FEA6C5C00F0298072
:101B5000BCF1FF3F08BF40F080407047130C06BF48
:101B600012044FF0100C4FF0000C130E04BF1202C1
:101B70000CF1080C130F04BF12010CF1040C930FAD
:101B800004BF92000CF1020CD30F04BF52000CF101
:101B9000010C11464FF00002A0F11F00A0EB0C0059
:101BA000704711F0004F08BF704731F000413FF41B
:101BB000D5AF0B0C06BF09044FF0100C4FF0000C12
:101BC0000B0E04BF09020CF1080C0B0F04BF090136
:101BD0000CF1040C8B0F04BF89000CF1020CCB0F2D
:101BE00004BF49000CF1010CCCF12003A0EB0C0068
:101BF00022FA03F302FA0CF241EA030100F10100B8
:101C0000704720F07F4C80EA030023F07F47ACEB65
:101C1000070303F57C5300F0004003F1FF032DE9B7
:101C200080494FEA154B09B44FEA144325EA0B4E9D
:101C300024EA03480FF2042606EB132749083E78EE
:101C40005FEA320203FB0667C7F5000707FB06F6EB
:101C50004FEA54374FEAD64606F1020607FB066CF8
:101C6000CCF1005C4FEA1C472CEA074C07FB06F45A
:101C70000CFB06F504EB15464FEA961634BF002020
:101C80004FF000404FEAD13706FB07FC4FEA1C4CEF
:101C90000CFB0BF7D21B03FB0CF761EB07010CFBF2
:101CA0000EF7B0EB074072EB17420CFB08F734BF9E
:101CB000A2EB0742B2EB074261EB17414FEA0C443B
:101CC0004FEA910706FB07FC4FEA1C4C0CFB0BF795
:101CD000B0EBC74072EB573203FB0CF734BFA2EBFB
:101CE000C742B2EBC74261EB57310CFB0EF7B0EBCA
:101CF000C70072EB57720CFB08F734BFA2EBC702A8
:101D0000B2EBC70261EB5771039F4FEA816141EA71
:101D1000921104EBCC044FEAD1374FEA826206FB02
:101D200007FC42EA90124FEA80604FEA1C4C0CFB21
:101D30000BF7D21B03FB0CF761EB07010CFB0EF753
:101D4000B0EB074072EB17420CFB08F734BFA2EB75
:101D50000742B2EB074261EB17414FEA8C554FEA5D
:101D6000910704EB9C2406FB07FC4FEA1C4C0CFB80
:101D70000BF7B0EBC74072EB573203FB0CF734BFE5
:101D8000A2EBC742B2EBC74261EB57310CFB0EF737
:101D9000B0EBC70072EB57720CFB08F734BFA2EB35
:101DA000C702B2EBC70261EB577115EB4C254FEA46
:101DB000816141EA92114FEA82624FEAD13742EAE9
:101DC000901206FB07FC44F100044FEA80604FEAE2
:101DD0001C4C0CFB0BF7D21B03FB0CF761EB070150
:101DE0000CFB0EF7B0EB074072EB17420CFB08F749
:101DF00034BFA2EB0742B2EB074261EB174115EB90
:101E00001C154FEA813141EA92414FEA823242EA9F
:101E100090424FEA80304FEA0C7644F1000448EAE1
:101E200003434EEA0B484FF0000EB2EB080C71EB87
:101E3000030724BF624639464EEB0E0E4FF0000BEF
:101E40000018524149414BEB0B0BB2EB080C71EB04
:101E500003077BF1000B24BF624639464EEB0E0EA2
:101E60004FF0000B0018524149414BEB0B0BB2EB0A
:101E7000080C71EB03077BF1000B24BF6246394667
:101E80004EEB0E0E51EA020718BF46F0010616EBA4
:101E90000E7655F1000254F1000103D5BDE8890129
:101EA000BDE80088BDE88901BDE80048B619524187
:101EB00041EB0101A3F10103704780807F7E7D7CAF
:101EC0007B7A7978777676757473727171706F6ECC
:101ED0006E6D6C6C6B6A6A69686867666665646477
:101EE000636362616160605F5F5E5E5D5D5C5C5B01
:101EF0005B5A5A5959585857575656555555545470
:101F0000535352525251515050504F4F4F4E4E4DCD
:101F10004D4D4C4C4C4B4B4B4A4A4A494949484819
:101F20004847474747464646454545444444444359
:101F300043434342424242414141000046EA064691
:101F4000A3F570534FEA164646EA42564FEAD222AC
:101F500042EA415210B54FEAD121A3F1010300F04A
:101F600017F820F0004000F1010C00F0004701EBF1
:101F700000501146BCF5006F40EA070000D210BDCA
:101F800002484FF0000140EA070010BD0000F07F5A
:101F9000002B26D4770021D01CB54FEA370703B4B5
:101FA0004FF010004FF010014FF000000FBCBDE8E3
:101FB00010400BF1010BBBF1010F08BF5FEA1707DF
:101FC00022BF12F1010211F101014FF0004143F172
:101FD000000300F0004043EA00007047F9D35708BF
:101FE000DAE746EA064613F1400F4FEA16461FDDD0
:101FF00013F1200FDFBF16430A46002120335B4256
:10200000C8D0C3F1200746EA064602FA07F74FEAAE
:10201000164646EA0706C3F1200722FA03F201FA40
:1020200007F721FA03F14FF0000342EA0702B1E794
:1020300046EA020646EA06464FEA164646EA010620
:10204000BCBF46EA0646360C4FF000034FF00002D4
:102050004FF000019EE72DE9C048934630B491E867
:10206000380007C831EA400C48BF34EA430C03D5B6
:10207000FFF7C7FDFFF78CFFF0BCBDE800882DE936
:10208000C048934630B491E8380007C831EA400CA4
:1020900048BF34EA430C03D5FFF7B3FDFFF74EFF0B
:1020A000F0BCBDE800882DE9C048934630B491E803
:1020B000380007C810F0804F08BF13F0804F03D1DD
:1020C00000F019F8FFF764FFF0BCBDE800882DE9C7
:1020D000C048934630B491E8380007C810F0804FEC
:1020E00008BF13F0804F03D100F005F8FFF726FF7B
:1020F000F0BCBDE8008820F07F4780EA030023F0B1
:102100007F4C07EB0C03A3F57C5300F00040A3F1D8
:10211000FE0392F0000F00F0B38095F0000F00F086
:1021200077802DE901494FEA11404FEA144621EA30
:10213000004800FB06FC24EA064708FB06F607FBFE
:1021400008F800FB07F718EB06484CEB164C4FEA73
:10215000124B18EB07484FEA15464CEB174022EAA2
:102160000B4E0BFB06FC25EA06470EFB06F607FBAB
:102170000EFE0BFB07F71EEB064E4CEB164C4FF01A
:1021800000061EEB074E4CEB174B18EB0B0840F10B
:10219000000018EB0E0B58EB000840F100008F1AFE
:1021A0004FF000013CBFC943661B14BFB5EB040CE4
:1021B00000213CBFC943F61B4FEA17444EEA8E0E7E
:1021C00027EA04454FEA1C4704FB07622CEA074C48
:1021D00005FB07F70CFB05F604FB0CFC16EB0746AA
:1021E00042EB174216EB0C4642EB1C421BEB060679
:1021F00058EB0202414146EA9E0601D5BDE801893D
:10220000B619524141EB0101A3F10103BDE8018977
:102210004FEA14454FEA114724EA054621EA074CE4
:1022200005FB07F406FB07F70CFB06F105FB0CFCAE
:1022300011EB074144EB17444FEA124711EB0C41F5
:1022400044EB1C4422EA074C05FB07F206FB07F7A8
:102250000CFB06F605FB0CFC16EB074642EB17429F
:1022600016EB0C4642EB1C456A1854F1000148BFBE
:102270007047B619524141EB0101A3F101037047C8
:1022800095F0000F37D04FEA11424FEA144721EA88
:10229000024624EA074C02FB07F106FB07F70CFB9A
:1022A00006F402FB0CFC14EB074441EB17414FEA28
:1022B000154714EB0C4441EB1C4125EA074C02FB8B
:1022C00007F506FB07F70CFB06F602FB0CFC16EB0A
:1022D000074645EB174516EB0C4645EB1C42121919
:1022E00051F1000148BF7047B619524141EB01015D
:1022F000A3F1010370474FEA14454FEA114724EA5E
:10230000054621EA074C05FB07F106FB07F70CFB26
:1023100006F24FF0000605FB0CFC12EB074241EB06
:10232000174112EB0C4251EB1C4148BF7047921809
:1023300041EB0101A3F10103704710B500F012FA5F
:1023400010BD70B506460C46154608E03046721CB6
:1023500096B200F007F804F8010B681E85B2002D54
:10236000F4D170BD70B50446002600F0A9FA2546E8
:10237000E11704EB11610912A02202EB4101C8B27E
:1023800000F06AFA00F0E8FAE11704EB11610912B3
:10239000A4EB0121C8B200F05FFA00F0DDFA00F012
:1023A0008FFAA12000F058FA00F0D6FA002000F0D1
:1023B0001BFA064600F0AAFA304670BD70B5054615
:1023C0000C46164606E02178284600F009F8681CFD
:1023D00085B2641C301EA6F101018EB2F3D170BD2E
:1023E00070B504460E4600F06BFA2546E11704EB83
:1023F00011610912A02202EB4101C8B200F02CFACF
:1024000000F0AAFAE11704EB11610912A4EB012113
:10241000C8B200F021FA00F09FFA304600F01CFA32
:1024200000F09AFA00F072FA0A2005F013FF70BD6E
:1024300000BFFEE77047000051B18200A2F1C04228
:10244000126842F001038200A2F1C042136009E069
:102450008200A2F1C0421268034B1A408300A3F12C
:10246000C0431A6070470000FEFF0F00D0E9011260
:102470001143C268114302691143426911438269E1
:102480001143C2691143026A1143426A1143826ACD
:102490001143C26A1143026B114302689200A2F118
:1024A000C0421160816808290BD101688900A1F13F
:1024B000C041096841F0400201688900A1F1C041B2
:1024C0000A60416B0968426B526841EA0211426B33
:1024D000926841EA0221426B928941EA0241426BD1
:1024E000128A41EA0251426B127D41EA0261426B5B
:1024F000926911430268521C9200A2F1C04211601D
:10250000C16AB1F5804F1BD1816B0968826B52683B
:1025100041EA0211826B926841EA0221826B128ABF
:1025200041EA0251826B127D41EA0261826B92693B
:10253000114302689200A2F1C042C2F8041107E000
:102540006FF0704201688900A1F1C041C1F8042117
:1025500070472DE9F04102460025002600200023A7
:102560000024002791F803C00CF00F0591F803C078
:102570000CF0100CBCF1000F03D091F802C04CEA33
:10258000050591F800C0BCF1000F31D0146800209F
:102590002BE04FF0010C0CFA00F3B1F800C00CEA8C
:1025A00003069E4220D183004FF00F0C0CFA03F774
:1025B000BC4305FA03FC4CEA040491F803C0BCF1E7
:1025C000280F06D14FF0010C0CFA00FCC2F814C021
:1025D0000AE091F803C0BCF1480F05D14FF0010C9F
:1025E0000CFA00FCC2F810C0401C0828D1D31460BB
:1025F000B1F800C0BCF1FF0F34DD546800202EE0BC
:1026000000F1080C4FF0010808FA0CF3B1F800C013
:102610000CEA03069E4221D183004FF00F0C0CFA06
:1026200003F7BC4305FA03FC4CEA040491F803C029
:10263000BCF1280F05D100F1080C08FA0CF8C2F81B
:10264000148091F803C0BCF1480F07D100F1080CC9
:102650004FF0010808FA0CF8C2F81080401C082856
:10266000CED35460BDE8F081F0B50A4600230024C3
:102670000021002500F00046B6F1004F02D11D4EAA
:10268000F16901E01B4E7168C0F3034583B200F4A9
:102690004016B6F5401F08D121F07061154E7668DE
:1026A00026F07066134F7E6012E000F48016B6F5D7
:1026B000801F06D1032606FA05F4A14341F070619C
:1026C00006E0460D360103FA06F6B14341F07061AB
:1026D00022B1460D360103FA06F6314300F00046FA
:1026E000B6F1004F02D1034EF16101E0014E71607D
:1026F000F0BD0000000001400246002093680B403E
:102700000BB1012000E0002070470161704700BF5D
:10271000FEE7000010B500200F4908600F48006870
:1027200020F070400D4908600846006840F04050B5
:10273000086000200A49C1F89C01022005F0B0FDA4
:10274000012005490860022005F0AAFD0020044987
:10275000C1F8980110BD000098812142000C014091
:102760000080214208B50121082004F0C5FCC020EA
:10277000ADF8000010208DF8030003208DF8020052
:1027800069460448FFF7E5FEC0210248FFF7BDFF98
:1027900008BD0000000C014010B500200F49086082
:1027A0000F48006820F070400D4908600846006836
:1027B00040F04050086001200A49C1F89C01022005
:1027C00005F06EFD012005490860022005F068FD56
:1027D00000200449C1F8980110BD000098812142F1
:1027E000000C01400080214270B5054600241748C6
:1027F000006820F07040154908600846006840F005
:1028000000400860002616E0002011490860022000
:1028100005F046FD01200F49C1F898016006040E3D
:102820000B487C38006808B1601CC4B2012005F078
:1028300037FD701CC6B2082EE6DB15B9FFF7ACFFFA
:1028400001E0FFF767FF204670BD0000000C01406B
:10285000988121420080214270B5044615480068E5
:1028600020F07040134908600846006840F040506E
:102870000860002010490860002517E0E0090E49B3
:10288000091D08606006040E022005F009FD012004
:102890000A49C1F89801022005F002FD002006490E
:1028A0000860022005F0FCFC681CC5B2082DE5DBC1
:1028B00070BD0000000C014098812142008021423F
:1028C00010B50F48006820F070400D4908600846B8
:1028D000006840F04050086001200A4908600A4939
:1028E000C1F89801042005F0DBFC002005490860D0
:1028F000042005F0D5FC00200349C1F8980110BD63
:10290000000C01409C8121420080214210B50F48FB
:10291000006820F070400D4908600846006840F0EB
:102920004050086000200A4908600A49C1F89C012B
:10293000042005F0B5FC0120054908600549C1F8EF
:102940009C01042005F0ACFC10BD0000000C01400F
:10295000988121420080214210B50024144800686B
:1029600020F07040124908600846006840F00040BE
:10297000086001200F49086005F092FC01200E4913
:10298000C1F8980105F08CFC07E0601CC4B2FA2C79
:1029900003DDFFF7BBFF012010BD0648803800684B
:1029A0000028F2D10349091F086000BFF4E70000C6
:1029B000000C01409C8121420080214270B50446F8
:1029C000002617480588408845431548808846F604
:1029D0000401884216D112488079012812D10020C2
:1029E0000F4988712A2048812B20888100210846C0
:1029F00003F0F8FF01200A4988712B2048812A2022
:102A0000888103E00021084603F0ECFF04F0FAFAA5
:102A1000002602E003480480761CAE42FAD370BD63
:102A2000B00100200008006C10B50446002C66D1EF
:102A30006C498871F02008804FF4A07048800846E7
:102A4000808849F2413188420BD06648808846F63A
:102A50000401884205D06348808845F210318842DD
:102A60001AD12C205F4908812A2048812B20888197
:102A70000846808846F60401884205D05948808877
:102A800045F21031884206D14FF4A07055490880B4
:102A90004FF4F0704880A1E05248808845F2105110
:102AA000884210D14FF430504E4908814FF42850DD
:102AB00048814FF42C5088814FF4F07008804FF417
:102AC000487048808AE04748808841F66311884210
:102AD0000DD12C20434908812B2048812A20888150
:102AE0004FF4F07008804FF44870488076E0222060
:102AF0003C49088120204881212088816EE0012006
:102B0000384988714FF4A0700880F020488008464A
:102B1000808849F24131884205D03248808845F2A8
:102B20001031884207D12C202E4908812A20488163
:102B30002B2088813FE02B48808846F6040188429C
:102B400007D12C20274908812B2048812A20888101
:102B500031E02448808845F21051884210D14FF46A
:102B60003050204908814FF4285048814FF42C50B0
:102B700088814FF4487008804FF4F07048801AE064
:102B80001848808841F6631188420DD12C201549E0
:102B900008812A2048812B2088814FF448700880C2
:102BA0004FF4F070488006E022200E490881212071
:102BB0004881202088810B48808846F6040188429D
:102BC00005D00848808845F21031884206D14FF47C
:102BD000F070044908804FF4A0704880002003F092
:102BE0008BFD10BDB00100202DE9FF4F84B0814660
:102BF0008A460020039002900698A0EB09050798EA
:102C0000A0EB0A06CDF80490CDF800A0002D01DD60
:102C1000012705E00DB9002702E04FF0FF376D42B4
:102C2000002E02DD4FF0010806E016B94FF0000853
:102C300002E04FF0FF387642B54201DD2C4600E05D
:102C400034464FF0000B21E0009A91B2019A90B205
:102C500000F022F803982844039002983044029030
:102C60000398A04205DD0398001B039001983844A7
:102C700001900298A04205DD0298001B0290009886
:102C8000404400900BF101001FFA80FB601C83455B
:102C9000DADD08B0BDE8F08F30B504460D462946B0
:102CA000204603F09FFE04F0ADF902480088024977
:102CB000088030BDBC0000200008006C30B5034621
:102CC0000C4615465A48808849F24131884205D061
:102CD0005748808845F21031884214D154494889B8
:102CE00004F08AF9181204F081F9D8B204F07EF9E0
:102CF0004F49888904F080F9201204F077F9E0B296
:102D000004F074F98CE04A48808845F210518842FA
:102D100020D14749488904F06FF9181204F066F988
:102D200043494989491C88B204F066F9D8B204F0D5
:102D30005DF93F49888904F05FF9201204F056F9E3
:102D40003B498989491C88B204F056F9E0B204F085
:102D50004DF965E03648808841F66311884228D1F4
:102D60003348807920B932480088401EC01A83B2A7
:102D70002F49488904F040F9181204F037F9D8B205
:102D800004F034F9181204F031F9D8B204F02EF935
:102D90002749888904F030F9201204F027F9E0B2BD
:102DA00004F024F9201204F021F9E0B204F01EF935
:102DB00036E01F48808846F6040188421DD11C4831
:102DC0008079012804D11A480088401EC01A83B2B5
:102DD0001749488904F010F9181204F007F9D8B21D
:102DE00004F004F91249888904F006F9201204F06D
:102DF000FDF8E0B204F0FAF812E00D4880790128FD
:102E000004D10B480088401EC01A83B20849488983
:102E1000194604F001F906498889214604F0FCF8B6
:102E20000348008903490880881C058030BD0000E4
:102E3000B0010020FE07006C2DE9FC4F05460E4650
:102E400017469846DDF82C9000200190274880888E
:102E500046F60401884229D124488079012825D1E9
:102E6000AB46354621480088C01B401E86B2474607
:102E70001E480088A0EB0B00401E1FFA80F80020BF
:102E80001A4988712A2048812B20888143463A4676
:102E900031462846CDF80090FFF7CEFF01201349B8
:102EA00088712B2048812A2088811CE0781B401CD7
:102EB00080B20190344614E02146284603F092FD8A
:102EC00004F0A0F84FF0000A06E00948A0F80090CE
:102ED0000AF101001FFA80FA01988245F5DB601CB7
:102EE00084B24445E8DDBDE8FC8F0000B00100205D
:102EF0000008006C00B59FB00121080204F0DCF866
:102F000001214FF4B47004F0F7F80120ADF8780017
:102F100010208DF87B0003208DF87A001EA9FE4852
:102F2000FFF717FB4CF23370ADF8780018208DF8DE
:102F30007B0003208DF87A001EA9F848FFF709FBF3
:102F40004FF68070ADF8780018208DF87B000320D4
:102F50008DF87A001EA9F248FFF7FBFA41F2010052
:102F6000ADF8780018208DF87B0003208DF87A00EA
:102F70001EA9EC48FFF7EDFA012008900020099007
:102F80000F200A9000200B900C900D900E90019055
:102F90000290032003900020049005900690079073
:102FA00006200F9000201090119010201290002009
:102FB000139015901490169017904FF4805018901D
:102FC000002019904FF480401A9000201B9008A810
:102FD0001C9001A81D900FA8FFF748FA01210620B8
:102FE000FFF72AFA322005F035F9002003F04EFBF6
:102FF000CD49888008468088FF280ADB08468088FB
:103000004FF6FF71884204D0C7488088B0F5134F4F
:103010007ED1D32003F0F0FF03F02EFBC24988805D
:1030200003F02AFBC049888003F026FBBE49888054
:10303000084680884FF6FF7101EA0020BA4988806F
:1030400003F01AFBB84989880843B74988800846C5
:10305000808849F2413188425AD0BF2003F0CCFF2A
:1030600003F00AFBB049888003F006FBAE49888074
:1030700003F002FBAC49888003F0FEFAAA4988807D
:10308000084680884FF6FF7101EA0020A649888033
:1030900003F0F2FAA44989880843A34988800846C6
:1030A000808846F6040188427AD0D42003F0A4FF39
:1030B00003F0E2FA9C49888003F0DEFA9A4988809E
:1030C00003F0DAFA98498880084680884FF6FF7145
:1030D00001EA00209449888003F0CEFA9249898859
:1030E0000843914988800846808845F2103188421B
:1030F00056D04FF45A4003F07FFF03F0BDFA8A49DF
:1031000088804FF45B4003F077FF03F0B5FA00E0EE
:1031100046E085498880084680884FF6FF7101EABD
:103120000020814988804FF45C4003F065FF03F084
:10313000A3FA7D49898808437B49888008468088AE
:10314000B0F5004F02D145F2105088807648808853
:1031500045F21051884223D0A12003F04DFF03F027
:103160008BFA7149888003F087FA6F498880084696
:1031700080884FF6FF7101EA00206B49888003F0D8
:103180007BFA6949898808436749888008468088AE
:1031900045F26171884203D141F66310624988802B
:1031A0006148818861A0FDF79BF85F48808849F2FB
:1031B000413188427ED1CF2003F01EFF002003F072
:1031C00015FFC12003F012FF302003F00FFFED20A8
:1031D00003F012FF642003F009FF032003F006FF51
:1031E000122003F003FF812003F000FFE82003F02A
:1031F00003FF852003F0FAFE102003F0F7FE7A208B
:1032000003F0F4FECB2003F0F7FE392003F0EEFECE
:103210002C2003F0EBFE002003F0E8FE342003F046
:10322000E5FE022003F0E2FEF72003F0E5FE202099
:1032300003F0DCFEEA2003F0DFFE002003F0D6FE00
:10324000002003F0D3FEC02003F0D6FE1B2003F0C5
:10325000CDFEC12003F0D0FE012003F0C7FEC52043
:1032600003F0CAFE302003F0C1FE302003F0BEFEA2
:10327000C72003F0C1FEB72003F0B8FE362003F0EC
:10328000BBFE482003F0B2FE3A2003F0B5FE552005
:1032900003F0ACFEB12003F0AFFE002003F0A6FE69
:1032A0001A2003F0A3FEB62003F0A6FE0A2003F0C6
:1032B0009DFE00E0AAE0A22003F098FEF22003F0B9
:1032C0009BFE002003F092FE262003F095FE0120D5
:1032D00003F08CFEE02003F08FFE0F2003F086FE4B
:1032E0002A2003F083FE282003F080FE082003F04C
:1032F0007DFE0E2003F07AFE082003F077FE5420B6
:1033000003F074FEA92003F071FE432003F06EFE6B
:103310000A2003F06BFE11E0000C01400014014094
:103320000018014000200140B0010020204C43441F
:103330002049443A25780D0A000000000F2003F0D0
:1033400055FE002003F052FE002003F04FFE002047
:1033500003F04CFE002003F049FEE12003F04CFE98
:10336000002003F043FE152003F040FE172003F079
:103370003DFE072003F03AFE112003F037FE062041
:1033800003F034FE2B2003F031FE562003F02EFE16
:103390003C2003F02BFE052003F028FE102003F054
:1033A00025FE0F2003F022FE3F2003F01FFE3F20EA
:1033B00003F01CFE0F2003F019FE2B2003F01CFE6F
:1033C000002003F013FE002003F010FE012003F0A4
:1033D0000DFE3F2003F00AFE2A2003F00DFE002020
:1033E00003F004FE002003F001FE002003F0FEFDC8
:1033F000EF2003F0FBFD112003F0FEFD782004F028
:1034000029FF292003F0F8FD03F01AB9FE4880884F
:1034100046F6040188427CD1112003F0EDFD142012
:1034200004F018FFD02003F0E7FD072003F0DEFDD5
:10343000422003F0DBFD1D2003F0D8FDD12003F076
:10344000DBFD002003F0D2FD1A2003F0CFFD0920A0
:1034500003F0CCFDD22003F0CFFD012003F0C6FD28
:10346000222003F0C3FDC02003F0C6FD102003F0AE
:10347000BDFD3B2003F0BAFD002003F0B7FD0220A4
:1034800003F0B4FD112003F0B1FDC52003F0B4FD3D
:10349000032003F0ABFDC82003F0AEFD002003F0D5
:1034A000A5FD252003F0A2FD212003F09FFD0520AE
:1034B00003F09CFD002003F099FD0A2003F096FD27
:1034C000652003F093FD252003F090FD772003F0A5
:1034D0008DFD502003F08AFD0F2003F087FD0020B2
:1034E00003F084FDF82003F087FD012003F07EFD4A
:1034F000FE2003F081FD002003F078FD022003F0A0
:1035000075FD202003F078FD362003F075FD0820BE
:1035100000E02CE003F06AFD3A2003F06DFD552039
:1035200003F064FD2B2003F067FD002003F05EFD37
:10353000002003F05BFD012003F058FD3F2003F065
:1035400055FD2A2003F058FD002003F04FFD002018
:1035500003F04CFD012003F049FDDF2003F046FDA0
:10356000782004F077FE292003F046FD4CE7A648BA
:10357000808845F21031884240F07C87ED2003F0CE
:103580003BFD012003F032FDFE2003F02FFDEE2075
:1035900003F032FDDE2003F029FD212003F026FD9B
:1035A000F12003F029FD012003F020FDDF2003F0CE
:1035B00023FD102003F01AFDC42003F01DFD8F2011
:1035C00003F014FDC62003F017FD002003F00EFDEC
:1035D000E22003F00BFDE22003F008FDE22003F0FF
:1035E00005FDBF2003F008FDAA2003F0FFFCB0207A
:1035F00003F002FD0D2003F0F9FC002003F0F6FCBF
:103600000D2003F0F3FC002003F0F0FC112003F088
:10361000EDFC002003F0EAFC192003F0E7FC002099
:1036200003F0E4FC212003F0E1FC002003F0DEFCC9
:103630002D2003F0DBFC002003F0D8FC3D2003F03C
:10364000D5FC002003F0D2FC5D2003F0CFFC00206D
:1036500003F0CCFC5D2003F0C9FC002003F0C6FCA5
:10366000B12003F0C9FC802003F0C0FC002003F06F
:10367000BDFC8B2003F0BAFC002003F0B7FC9620C1
:1036800003F0B4FC002003F0B1FCB22003F0B4FC62
:10369000002003F0ABFC002003F0A8FC022003F0A4
:1036A000A5FC002003F0A2FC032003F09FFC0020F7
:1036B00003F09CFCB32003F09FFC002003F096FC79
:1036C000002003F093FC002003F090FC002003F0A6
:1036D0008DFC002003F08AFC002003F087FC002012
:1036E00003F084FC002003F081FC002003F07EFC4A
:1036F000002003F07BFC002003F078FC002003F0A6
:1037000075FC002003F072FC002003F06FFC002029
:1037100003F06CFC002003F069FC002003F066FC61
:10372000002003F063FC002003F060FC002003F0A5
:103730005DFC002003F05AFC002003F057FC002041
:1037400003F054FC002003F051FCB42003F054FCBF
:103750008B2003F04BFC002003F048FC962003F084
:1037600045FC002003F042FCA12003F03FFC0020B8
:1037700003F03CFCB52003F03FFC022003F036FCD4
:10378000002003F033FC032003F030FC002003F0A2
:103790002DFC042003F02AFC002003F027FCB620B7
:1037A00003F02AFC002003F021FC002003F01EFCA3
:1037B000B72003F021FC002003F018FC002003F0E8
:1037C00015FC3F2003F012FC002003F00FFC5E20EC
:1037D00003F00CFC002003F009FC642003F006FC5D
:1037E000002003F003FC8C2003F000FC002003F019
:1037F000FDFBAC2003F0FAFB002003F0F7FBDC201C
:1038000003F0F4FB002001E0B001002003F0EEFB28
:10381000702003F0EBFB002003F0E8FB902003F0A6
:10382000E5FB002003F0E2FBEB2003F0DFFB0020D0
:1038300003F0DCFBDC2003F0D9FB002003F0D6FB17
:10384000B82003F0D9FB002003F0D0FB002003F0E8
:10385000CDFB002003F0CAFB002003F0C7FB0020D3
:1038600003F0C4FB002003F0C1FB002003F0BEFB0B
:10387000002003F0BBFBBA2003F0BEFB242003F0C2
:10388000B5FB002003F0B2FB002003F0AFFB0020EB
:1038900003F0ACFBC12003F0AFFB202003F0A6FB3C
:1038A000002003F0A3FB542003F0A0FB002003F052
:1038B0009DFBFF2003F09AFB002003F097FBC22042
:1038C00003F09AFB0A2003F091FB002003F08EFB2B
:1038D000042003F08BFB002003F088FBC32003F0DF
:1038E0008BFB3C2003F082FB002003F07FFB3A209F
:1038F00003F07CFB002003F079FB392003F076FB1A
:10390000002003F073FB372003F070FB002003F06E
:103910006DFB3C2003F06AFB002003F067FB3620C0
:1039200003F064FB002003F061FB322003F05EFB38
:10393000002003F05BFB2F2003F058FB002003F076
:1039400055FB2C2003F052FB002003F04FFB2920F5
:1039500003F04CFB002003F049FB262003F046FB5C
:10396000002003F043FB242003F040FB002003F081
:103970003DFB242003F03AFB002003F037FB23201B
:1039800003F034FB002003F031FB3C2003F02EFB5E
:10399000002003F02BFB362003F028FB002003F06F
:1039A00025FB322003F022FB002003F01FFB2F2019
:1039B00003F01CFB002003F019FB2C2003F016FB86
:1039C000002003F013FB292003F010FB002003F07C
:1039D0000DFB262003F00AFB002003F007FB242048
:1039E00003F004FB002003F001FB242003F0FEFAA7
:1039F000002003F0FBFA232003F0F8FA002003F084
:103A0000F5FAC42003F0F8FA622003F0EFFA002080
:103A100003F0ECFA052003F0E9FA002003F0E6FADF
:103A2000842003F0E3FA002003F0E0FAF02003F032
:103A3000DDFA002003F0DAFA182003F0D7FA0020AC
:103A400003F0D4FAA42003F0D1FA002003F0CEFA58
:103A5000182003F0CBFA002003F0C8FA502003F03E
:103A6000C5FA002003F0C2FA0C2003F0BFFA0020D0
:103A700003F0BCFA172003F0B9FA002003F0B6FAFD
:103A8000952003F0B3FA002003F0B0FAF32003F01E
:103A9000ADFA002003F0AAFAE62003F0A7FA00200E
:103AA00003F0A4FAC52003F0A7FA322003F09EFA2F
:103AB000002003F09BFA442003F098FA002003F062
:103AC00095FA652003F092FA002003F08FFA762031
:103AD00003F08CFA002003F089FA882003F086FABC
:103AE000002003F083FAC62003F086FA202003F0BA
:103AF0007DFA002003F07AFA172003F077FA00200D
:103B000003F074FA012003F071FA002003F06EFA5A
:103B1000C72003F071FA002003F068FA002003F0D8
:103B200065FA002003F062FA002003F05FFAC82073
:103B300003F062FA002003F059FA002003F056FA6D
:103B4000002003F053FA002003F050FAC92003F0DC
:103B500053FA002003F04AFA002003F047FA00204D
:103B600003F044FA002003F041FA002003F03EFA8B
:103B7000002003F03BFA002003F038FA002003F0A5
:103B800035FA002003F032FA002003F02FFA00206B
:103B900003F02CFA002003F029FA002003F026FAA3
:103BA000002003F023FA002003F020FA002003F0A5
:103BB0001DFAE02003F020FA162003F017FA002087
:103BC00003F014FA1C2003F011FA002003F00EFA9F
:103BD000212003F00BFA002003F008FA362003F04E
:103BE00005FA002003F002FA462003F0FFF9002056
:103BF00003F0FCF9522003F0F9F9002003F0F6F984
:103C0000642003F0F3F9002003F0F0F97A2003F0C8
:103C1000EDF9002003F0EAF98B2003F0E7F900202A
:103C200003F0E4F9992003F0E1F9002003F0DEF954
:103C3000A82003F0DBF9002003F0D8F9B92003F045
:103C4000D5F9002003F0D2F9C42003F0CFF9002009
:103C500003F0CCF9CA2003F0C9F9002003F0C6F93B
:103C6000D22003F0C3F9002003F0C0F9D92003F0FB
:103C7000BDF9002003F0BAF9E02003F0B7F9002005
:103C800003F0B4F9F32003F0B1F9002003F0AEF92A
:103C9000E12003F0B1F9162003F0A8F9002003F0A9
:103CA000A5F91C2003F0A2F9002003F09FF92220BF
:103CB00003F09CF9002003F099F9362003F096F9FF
:103CC000002003F093F9452003F090F9002003F061
:103CD0008DF9522003F08AF9002003F087F964205F
:103CE00003F084F9002003F081F97A2003F07EF9D3
:103CF000002003F07BF98B2003F078F9002003F01B
:103D000075F9992003F072F9002003F06FF9A820EB
:103D100003F06CF9002003F069F9B92003F066F9AB
:103D2000002003F063F9C42003F060F9002003F0E1
:103D30005DF9CA2003F05AF9002003F057F9D220A8
:103D400003F054F9002003F051F9D82003F04EF9A4
:103D5000002003F04BF9E02003F048F9002003F0C5
:103D600045F9F32003F042F9002003F03FF9E22087
:103D700003F042F9052003F039F9002003F036F989
:103D80000B2003F033F9002003F030F91B2003F07F
:103D90002DF9002003F02AF9342003F027F9002040
:103DA00003F024F9442003F021F9002003F01EF968
:103DB0004F2003F01BF9002003F018F9612003F0F5
:103DC00015F9002003F012F9792003F00FF9002013
:103DD00003F00CF9882003F009F9002003F006F93C
:103DE000972003F003F9002003F000F9A62003F068
:103DF000FDF8002003F0FAF8B72003F0F7F80020F0
:103E000003F0F4F8C22003F0F1F8002003F0EEF81C
:103E1000C72003F0EBF8002003F0E8F8D12003F00E
:103E2000E5F8002003F0E2F8D62003F0DFF80020E8
:103E300003F0DCF8DD2003F0D9F8002003F0D6F819
:103E4000F32003F0D3F8002003F0D0F8E32003F0D0
:103E5000D3F8052003F0CAF8002003F0C7F80A20C1
:103E600003F0C4F8002003F0C1F81C2003F0BEF8F2
:103E7000002003F0BBF8332003F0B8F8002003F073
:103E8000B5F8442003F0B2F8002003F0AFF850205A
:103E900003F0ACF8002003F0A9F8622003F0A6F8C4
:103EA000002003F0A3F8782003F0A0F8002003F02E
:103EB0009DF8882003F09AF8002003F097F89720E7
:103EC00003F094F8002003F091F8A62003F08EF898
:103ED000002003F08BF8B72003F088F8002003F0EF
:103EE00085F8C22003F082F8002003F07FF8C72095
:103EF00003F07CF8002003F079F8D12003F076F885
:103F0000002003F073F8D52003F070F8002003F0D0
:103F10006DF8DD2003F06AF8002003F067F8F32065
:103F200003F064F8002003F061F8E42003F064F883
:103F3000012003F05BF8002003F058F8012003F0A3
:103F400055F8002003F052F8022003F04FF800204B
:103F500003F04CF82A2003F049F8002003F046F85B
:103F60003C2003F043F8002003F040F84B2003F01E
:103F70003DF8002003F03AF85D2003F037F8002008
:103F800003F034F8742003F031F8002003F02EF829
:103F9000842003F02BF8002003F028F8932003F08E
:103FA00025F8002003F022F8A22003F01FF80020DB
:103FB00003F01CF8B32003F019F8002003F016F802
:103FC000BE2003F013F8002003F010F8C42003F023
:103FD0000DF8002003F00AF8CD2003F007F80020C8
:103FE00003F004F8D32003F001F8002002F0FEFFF4
:103FF000DD2002F0FBFF002002F0F8FFF32002F0CA
:10400000F5FF002002F0F2FFE52002F0F5FF0020AE
:1040100002F0ECFF002002F0E9FF002002F0E6FFD2
:10402000002002F0E3FF022002F0E0FF002002F097
:10403000DDFF292002F0DAFF002002F0D7FF3C204C
:1040400002F0D4FF002002F0D1FF4B2002F0CEFF9F
:10405000002002F0CBFF5D2002F0C8FF002002F03C
:10406000C5FF742002F0C2FF002002F0BFFF8420D1
:1040700002F0BCFF002002F0B9FF932002F0B6FF6F
:10408000002002F0B3FFA22002F0B0FF002002F0F7
:10409000ADFFB32002F0AAFF002002F0A7FFBE2070
:1040A00002F0A4FF002002F0A1FFC42002F09EFF56
:1040B000002002F09BFFCD2002F098FF002002F0CC
:1040C00095FFD32002F092FF002002F08FFFDC204A
:1040D00002F08CFF002002F089FFF32002F086FF3F
:1040E000002002F083FFE62002F086FF112002F09C
:1040F0007DFF002002F07AFF342002F077FF0020DD
:1041000002F074FF562002F071FF002002F06EFFF3
:10411000762002F06BFF002002F068FF772002F0AB
:1041200065FF002002F062FF662002F05FFF0020C2
:1041300002F05CFF882002F059FF002002F056FFD9
:10414000992002F053FF002002F050FFBB2002F044
:104150004DFF002002F04AFF992002F047FF0020A7
:1041600002F044FF662002F041FF002002F03EFF13
:10417000552002F03BFF002002F038FF552002F0EE
:1041800035FF002002F032FF452002F02FFF002013
:1041900002F02CFF432002F029FF002002F026FF4E
:1041A000442002F023FF002002F020FFE72002F06D
:1041B00023FF322002F01AFF002002F017FF5520E3
:1041C00002F014FF002002F011FF762002F00EFF33
:1041D000002002F00BFF662002F008FF002002F032
:1041E00005FF672002F002FF002002F0FFFE6720BB
:1041F00002F0FCFE002002F0F9FE872002F0F6FE3D
:10420000002002F0F3FE992002F0F0FE002002F000
:10421000EDFEBB2002F0EAFE002002F0E7FE99204E
:1042200002F0E4FE002002F0E1FE772002F0DEFE64
:10423000002002F0DBFE442002F0D8FE002002F055
:10424000D5FE562002F0D2FE002002F0CFFE232041
:1042500002F0CCFE002002F0C9FE332002F0C6FEC0
:10426000002002F0C3FE452002F0C0FE002002F054
:10427000BDFEE82002F0C0FE002002F0B7FE0020E4
:1042800002F0B4FE992002F0B1FE002002F0AEFE72
:10429000872002F0ABFE002002F0A8FE882002F08A
:1042A000A5FE002002F0A2FE772002F09FFE002073
:1042B00002F09CFE662002F099FE002002F096FEBD
:1042C000882002F093FE002002F090FEAA2002F067
:1042D0008DFE002002F08AFEBB2002F087FE002047
:1042E00002F084FE992002F081FE002002F07EFEA2
:1042F000662002F07BFE002002F078FE552002F0DE
:1043000075FE002002F072FE552002F06FFE0020C4
:1043100002F06CFE442002F069FE002002F066FE0E
:10432000442002F063FE002002F060FE552002F0FF
:104330005DFE002002F05AFEE92002F05DFEAA2098
:1043400002F054FE002002F051FE002002F04EFE6A
:10435000002002F04BFE002002F04EFEAA2002F0E8
:1043600045FECF2002F048FE002002F03FFE002074
:1043700002F03CFE002002F039FE002002F036FE82
:10438000002002F033FE002002F030FE002002F098
:104390002DFE002002F02AFE002002F027FE002061
:1043A00002F024FE002002F021FE002002F01EFE9A
:1043B000002002F01BFE002002F018FE002002F098
:1043C00015FE002002F012FE002002F00FFEF02089
:1043D00002F012FE002002F009FE502002F006FE5C
:1043E000002002F003FE002002F000FE002002F098
:1043F000FDFDF32002F000FE002002F0F7FDF920A1
:1044000002F0FAFD062002F0F1FD102002F0EEFDB0
:10441000292002F0EBFD002002F0E8FD3A2002F036
:10442000EBFD552002F0E2FD112002F0E5FD6420D5
:1044300003F010FF292002F0DFFD352002F0DCFD43
:10444000002002F0D3FD512002F0D6FDFF2002F043
:10445000CDFD532002F0D0FD2C2002F0C7FD5520E9
:1044600002F0CAFD822002F0C1FD2C2002F0C4FD42
:1044700002F0E6B8FE48808845F2105188427DD1AE
:1044800055214FF4704002F0C7FDAA214FF2010000
:1044900002F0C2FD52214FF2020002F0BDFD0821E0
:1044A0004FF2030002F0B8FD01214FF2040002F0C8
:1044B000B3FD0D214FF4304002F0AEFD0D214BF263
:1044C000010002F0A9FD0D214BF2020002F0A4FD53
:1044D00034214FF4364002F09FFD34214BF201604D
:1044E00002F09AFD34214BF2026002F095FD0D219D
:1044F0004FF4314002F090FD0D214BF2011002F01B
:104500008BFD0D214BF2021002F086FD34214FF499
:10451000374002F081FD34214BF2017002F07CFD46
:1045200034214BF2027002F077FD00214FF432404B
:1045300002F072FD00214BF2012002F06DFD00211E
:104540004BF2022002F068FD24214FF4384002F0C3
:1045500063FD24214BF6010002F05EFD24214BF6A1
:10456000020002F059FD01214FF43F4002F054FDDA
:104570000F214FF4334002F04FFD00E0FDE30F2127
:104580004BF2013002F048FD0F214BF2023002F0F5
:1045900043FD34214FF4394002F03EFD34214BF607
:1045A000011002F039FD34214BF6021002F034FD07
:1045B00008214FF4354002F02FFD08214BF2015045
:1045C00002F02AFD08214BF2025002F025FD0321E2
:1045D0004FF4424002F020FD24214FF43A4002F013
:1045E0001BFD24214BF6012002F016FD24214BF681
:1045F000022002F011FD00214FF43C4002F00CFDBE
:1046000078214BF6014002F007FD00214BF60240F5
:1046100002F002FD00214FF43D4002F0FDFC782144
:104620004BF6015002F0F8FC00214BF6025002F06C
:10463000F3FC00214FF43E4002F0EEFC64214BF607
:10464000016002F0E9FC00214FF4514002F0E4FC6B
:1046500033214DF2011002F0DFFC00214DF2021077
:1046600002F0DAFC34214DF2031002F0D5FC0021F7
:104670004DF2041002F0D0FC3A214DF2051002F088
:10468000CBFC00214DF2061002F0C6FC4A214DF28F
:10469000071002F0C1FC00214DF2081002F0BCFC32
:1046A0005C214DF2091002F0B7FC00214DF20A1016
:1046B00002F0B2FC81214DF20B1002F0ADFC0021A2
:1046C0004DF20C1002F0A8FCA6214DF20D1002F0E4
:1046D000A3FC00214DF20E1002F09EFCE5214DF2EC
:1046E0000F1002F099FC01214DF2101002F094FC21
:1046F00013214DF2111002F08FFC01214DF2121026
:1047000002F08AFC54214DF2131002F085FC0121C5
:104710004DF2141002F080FC82214DF2151002F0CF
:104720007BFC01214DF2161002F076FCCA214DF2FD
:10473000171002F071FC02214DF2181002F06CFC0F
:1047400000214DF2191002F067FC02214DF21A10FF
:1047500002F062FC01214DF21B1002F05DFC02210F
:104760004DF21C1002F058FC34214DF21D1002F0E5
:1047700053FC02214DF21E1002F04EFC67214DF257
:104780001F1002F049FC02214DF2201002F044FCFF
:1047900084214DF2211002F03FFC02214DF2221043
:1047A00002F03AFCA4214DF2231002F035FC022164
:1047B0004DF2241002F030FCB7214DF2251002F02A
:1047C0002BFC02214DF2261002F026FCCF214DF2E7
:1047D000271002F021FC02214DF2281002F01CFCEF
:1047E000DE214DF2291002F017FC02214DF22A10B1
:1047F00002F012FCF2214DF22B1002F00DFC02210E
:104800004DF22C1002F008FCFE214DF22D1002F0AA
:1048100003FC03214DF22E1002F0FEFB10214DF29D
:104820002F1002F0F9FB03214DF2301002F0F4FBDF
:1048300033214DF2311002F0EFFB03214DF2321023
:1048400002F0EAFB6D214DF2331002F0E5FB00218E
:104850004FF4524002F0E0FB33214DF2012002F010
:10486000DBFB00214DF2022002F0D6FB342101E0F7
:10487000B00100204DF2032002F0CEFB00214DF2EA
:10488000042002F0C9FB3A214DF2052002F0C4FBDE
:1048900000214DF2062002F0BFFB4A214DF2072015
:1048A00002F0BAFB00214DF2082002F0B5FB5C21BA
:1048B0004DF2092002F0B0FB00214DF20A2002F077
:1048C000ABFB81214DF20B2002F0A6FB00214DF243
:1048D0000C2002F0A1FBA6214DF20D2002F09CFB62
:1048E00000214DF20E2002F097FBE5214DF20F2042
:1048F00002F092FB01214DF2102002F08DFB1321FA
:104900004DF2112002F088FB01214DF2122002F03D
:1049100083FB54214DF2132002F07EFB01214DF266
:10492000142002F079FB82214DF2152002F074FB75
:1049300001214DF2162002F06FFBCA214DF2172023
:1049400002F06AFB02214DF2182002F065FB002103
:104950004DF2192002F060FB02214DF21A2002F004
:104960005BFB01214DF21B2002F056FB02214DF2B0
:104970001C2002F051FB34214DF21D2002F04CFBB3
:1049800002214DF21E2002F047FB67214DF21F204D
:1049900002F042FB02214DF2202002F03DFB842177
:1049A0004DF2212002F038FB02214DF2222002F0CC
:1049B00033FBA4214DF2232002F02EFB02214DF205
:1049C000242002F029FBB7214DF2252002F024FB20
:1049D00002214DF2262002F01FFBCF214DF22720AD
:1049E00002F01AFB02214DF2282002F015FBDE2115
:1049F0004DF2292002F010FB02214DF22A2002F094
:104A00000BFBF2214DF22B2002F006FB02214DF2AE
:104A10002C2002F001FBFE214DF22D2002F0FCFAC9
:104A200003214DF22E2002F0F7FA10214DF22F2033
:104A300002F0F2FA03214DF2302002F0EDFA3321B8
:104A40004DF2312002F0E8FA03214DF2322002F05B
:104A5000E3FA6D214DF2332002F0DEFA00214FF42B
:104A6000534002F0D9FA33214DF2013002F0D4FA6A
:104A700000214DF2023002F0CFFA34214DF2033022
:104A800002F0CAFA00214DF2043002F0C5FA3A21D0
:104A90004DF2053002F0C0FA00214DF2063002F06E
:104AA000BBFA4A214DF2073002F0B6FA00214DF26E
:104AB000083002F0B1FA5C214DF2093002F0ACFA94
:104AC00000214DF20A3002F0A7FA81214DF20B309D
:104AD00002F0A2FA00214DF20C3002F09DFAA6215C
:104AE0004DF20D3002F098FA00214DF20E3002F036
:104AF00093FAE5214DF20F3002F08EFA01214DF2CA
:104B0000103002F089FA13214DF2113002F084FACC
:104B100001214DF2123002F07FFA54214DF2133090
:104B200002F07AFA01214DF2143002F075FA822176
:104B30004DF2153002F070FA01214DF2163002F0FC
:104B40006BFACA214DF2173002F066FA02214DF2DB
:104B5000183002F061FA00214DF2193002F05CFACF
:104B600002214DF21A3002F057FA01214DF21B30AA
:104B700002F052FA02214DF21C3002F04DFA3421BB
:104B80004DF21D3002F048FA02214DF21E3002F0C3
:104B900043FA67214DF21F3002F03EFA02214DF236
:104BA000203002F039FA84214DF2213002F034FA3B
:104BB00002214DF2223002F02FFAA4214DF22330CF
:104BC00002F02AFA02214DF2243002F025FAB72130
:104BD0004DF2253002F020FA02214DF2263002F08B
:104BE0001BFACF214DF2273002F016FA02214DF2C6
:104BF000283002F011FADE214DF2293002F00CFAD1
:104C000002214DF22A3002F007FAF2214DF22B3048
:104C100002F002FA02214DF22C3002F0FDF9FE21E1
:104C20004DF22D3002F0F8F903214DF22E3002F052
:104C3000F3F910214DF22F3002F0EEF903214DF27D
:104C4000303002F0E9F933214DF2313002F0E4F96D
:104C500003214DF2323002F0DFF96D214DF2333095
:104C600002F0DAF900214FF4544002F0D5F9332173
:104C70004DF2014002F0D0F900214DF2024002F065
:104C8000CBF934214DF2034002F0C6F900214DF278
:104C9000044002F0C1F93A214DF2054002F0BCF99E
:104CA00000214DF2064002F0B7F94A214DF20740CB
:104CB00002F0B2F900214DF2084002F0ADF95C219A
:104CC0004DF2094002F0A8F900214DF20A4002F02D
:104CD000A3F981214DF20B4002F09EF900214DF223
:104CE0000C4002F099F9A6214DF20D4002F094F922
:104CF00000214DF20E4002F08FF9E5214DF20F40F8
:104D000002F08AF901214DF2104002F085F91321D9
:104D10004DF2114002F080F901214DF2124002F0F3
:104D20007BF954214DF2134002F076F901214DF246
:104D3000144002F071F982214DF2154002F06CF935
:104D400001214DF2164002F067F9CA214DF21740D9
:104D500002F062F902214DF2184002F05DF90021E3
:104D60004DF2194002F058F902214DF21A4002F0BA
:104D700053F901214DF21B4000E006E302F04CF92B
:104D800002214DF21C4002F047F934214DF21D4042
:104D900002F042F902214DF21E4002F03DF9672176
:104DA0004DF21F4002F038F902214DF2204002F08E
:104DB00033F984214DF2214002F02EF902214DF207
:104DC000224002F029F9A4214DF2234002F024F9F7
:104DD00002214DF2244002F01FF9B7214DF2254087
:104DE00002F01AF902214DF2264002F015F9CF2106
:104DF0004DF2274002F010F902214DF2284002F056
:104E00000BF9DE214DF2294002F006F902214DF2A4
:104E10002A4002F001F9F2214DF22B4002F0FCF899
:104E200002214DF22C4002F0F7F8FE214DF22D4008
:104E300002F0F2F803214DF22E4002F0EDF81021BD
:104E40004DF22F4002F0E8F803214DF2304002F01D
:104E5000E3F833214DF2314002F0DEF803214DF248
:104E6000324002F0D9F86D214DF2334002F0D4F80F
:104E700000214FF4554002F0CFF833214DF201509C
:104E800002F0CAF800214DF2025002F0C5F83421B8
:104E90004DF2035002F0C0F800214DF2045002F030
:104EA000BBF83A214DF2055002F0B6F800214DF260
:104EB000065002F0B1F84A214DF2075002F0ACF86A
:104EC00000214DF2085002F0A7F85C214DF2095084
:104ED00002F0A2F800214DF20A5002F09DF8812163
:104EE0004DF20B5002F098F800214DF20C5002F0F8
:104EF00093F8A6214DF20D5002F08EF800214DF2EC
:104F00000E5002F089F8E5214DF20F5002F084F8BE
:104F100001214DF2105002F07FF813214DF2115093
:104F200002F07AF801214DF2125002F075F8542186
:104F30004DF2135002F070F801214DF2145002F0BE
:104F40006BF882214DF2155002F066F801214DF206
:104F5000165002F061F8CA214DF2175002F05CF8C9
:104F600002214DF2185002F057F800214DF219506D
:104F700002F052F802214DF21A5002F04DF80121D0
:104F80004DF21B5002F048F802214DF21C5002F085
:104F900043F834214DF21D5002F03EF802214DF24B
:104FA0001E5002F039F867214DF21F5002F034F81C
:104FB00002214DF2205002F02FF884214DF22150B1
:104FC00002F02AF802214DF2225002F025F8A42125
:104FD0004DF2235002F020F802214DF2245002F04D
:104FE0001BF8B7214DF2255002F016F802214DF2C0
:104FF000265002F011F8CF214DF2275002F00CF8A4
:1050000002214DF2285002F007F8DE214DF229501E
:1050100002F002F802214DF22A5001F0FDFFF221C8
:105020004DF22B5001F0F8FF02214DF22C5001F00F
:10503000F3FFFE214DF22D5001F0EEFF03214DF262
:105040002E5001F0E9FF10214DF22F5001F0E4FF46
:1050500003214DF2305001F0DFFF33214DF231508A
:1050600001F0DAFF03214DF2325001F0D5FF6D213E
:105070004DF2335001F0D0FF00214FF4564001F0C3
:10508000CBFF33214DF2016001F0C6FF00214DF24C
:10509000026001F0C1FF34214DF2036001F0BCFF5A
:1050A00000214DF2046001F0B7FF3A214DF2056096
:1050B00001F0B2FF00214DF2066001F0ADFF4A2180
:1050C0004DF2076001F0A8FF00214DF2086001F0E9
:1050D000A3FF5C214DF2096001F09EFF00214DF21B
:1050E0000A6001F099FF81214DF20B6001F094FFFD
:1050F00000214DF20C6001F08FFFA6214DF20D60F2
:1051000001F08AFF00214DF20E6001F085FFE521DC
:105110004DF20F6001F080FF01214DF2106001F0AF
:105120007BFF13214DF2116001F076FF01214DF25A
:10513000126001F071FF54214DF2136001F06CFF19
:1051400001214DF2146001F067FF82214DF21560DC
:1051500001F062FF01214DF2166001F05DFFCA21EE
:105160004DF2176001F058FF02214DF2186001F076
:1051700053FF00214DF2196001F04EFF02214DF264
:105180001A6001F049FF01214DF21B6001F044FF5C
:1051900002214DF21C6001F03FFF34214DF21D60F1
:1051A00001F03AFF02214DF21E6001F035FF672148
:1051B0004DF21F6001F030FF02214DF2206001F03E
:1051C0002BFF84214DF2216001F026FF02214DF2D8
:1051D000226001F021FFA4214DF2236001F01CFFA9
:1051E00002214DF2246001F017FFB7214DF2256036
:1051F00001F012FF02214DF2266001F00DFFCF21D8
:105200004DF2276001F008FF02214DF2286001F005
:1052100003FFDE214DF2296001F0FEFE02214DF276
:105220002A6001F0F9FEF2214DF22B6001F0F4FE4C
:1052300002214DF22C6001F0EFFEFE214DF22D60B7
:1052400001F0EAFE03214DF22E6001F0E5FE10218F
:105250004DF22F6001F0E0FE03214DF2306001F0CD
:10526000DBFE33214DF2316001F0D6FE03214DF219
:10527000326001F0D1FE6D214DF2336001F0CCFEC1
:1052800055214FF4704001F0C7FEAA214FF20100F2
:1052900001F0C2FE52214FF2020001F0BDFE0821D2
:1052A0004FF2030001F0B8FE00214FF2040001F0BC
:1052B000B3FECC214FF4314001F0AEFE00214BF2A1
:1052C000011001F0A9FE05214FF4364001F0A4FEC3
:1052D00070214FF4374001F09FFE70214BF20170B6
:1052E00001F09AFE01214FF4384001F095FE0321B0
:1052F0004BF6010001F090FE03214BF6020001F095
:105300008BFE03214BF6030001F086FE02214FF4D1
:105310003C4001F081FE00214BF6014001F07CFE93
:1053200000214BF6024001F077FED0214FF44940B6
:1053300001F072FE02214CF6011001F06DFE5021C9
:105340004CF6021001F068FE50214CF6031001F0FB
:1053500063FE50214CF6041001F05EFE00214FF474
:10536000545001F059FE55214FF4685001F054FE9D
:105370004FF4885001F040FE782002F091FF4FF486
:10538000245001F039FE01F05BB9FE48808849F2F3
:10539000253188427ED147F6F001E52001F03CFE40
:1053A0004FF48071012001F037FE4FF4E0610220DC
:1053B00001F032FE41F23001032001F02DFE002108
:1053C000042001F029FE40F20221082001F024FE11
:1053D0000021092001F020FE00210A2001F01CFE1E
:1053E00000210C2001F018FE00210D2001F014FE18
:1053F00000210F2001F010FE0021102001F00CFE12
:105400000721112001F008FE0021122001F004FE06
:105410000021132001F000FE0021072001F0FCFD17
:1054200041F29061102001F0F7FD40F22721112098
:1054300001F0F2FD9D21122001F0EEFD4FF4C85164
:10544000132001F0E9FD2521292001F0E5FD0D21C2
:105450002B2001F0E1FD0721302001F0DDFD40F2BD
:105460000331312001F0D8FD0321322001F0D4FDB9
:1054700040F20621352001F0CFFD0821362001F051
:10548000CBFD40F20641372001F0C6FD4FF44171DB
:10549000382000E057E001F0BFFD0721392001F07E
:1054A000BBFD40F202613C2001F0B6FD08213D2029
:1054B00001F0B2FD0021502001F0AEFDEF2151209E
:1054C00001F0AAFD0021522001F0A6FD40F23F119B
:1054D000532001F0A1FD4FF42741602001F09CFD15
:1054E0000121612001F098FD00216A2001F094FD66
:1054F0000021802001F090FD0021812001F08CFD31
:105500000021822001F088FD0021832001F084FD2C
:105510000021842001F080FD0021852001F07CFD28
:105520001021902001F078FD4FF4C061922001F02D
:1055300073FD40F23311072001F06EFD222100209F
:1055400001F06AFD1FE78F48808849F228318842C0
:105550007ED141F28F01EC2001F05EFD41F2342159
:10556000EF2001F059FD4FF48071012001F054FD4E
:105570004FF4E061022001F04FFD41F230010320C1
:1055800001F04AFD0021042001F046FD40F2022115
:10559000082001F041FD0021092001F03DFD00211E
:1055A0000A2001F039FD01210C2001F035FD002118
:1055B0000D2001F031FD00210F2001F02DFD002113
:1055C000102001F029FD0721112001F025FD002107
:1055D000122001F021FD0021132001F01DFD012109
:1055E000072001F019FD322002F034FE41F2904113
:1055F000102001F011FD40F22721112001F00CFDD7
:10560000322002F027FE8A21122001F005FD32200F
:1056100002F020FE4FF4D051132001F0FDFC0621D2
:10562000292001F0F9FC0D212B2001F0F5FC32209E
:1056300002F010FE0021202001F0EEFC00212120CC
:1056400001F0EAFC322002F005FE0021302000E0EB
:1056500074E001F0E1FC40F20461312001F0DCFC77
:1056600040F20531322001F0D7FC0021352001F055
:10567000D3FC40F60941362001F0CEFC4FF4017115
:10568000372001F0C9FC40F20131382001F0C4FCA0
:1056900040F20771392001F0BFFC00213C2001F0ED
:1056A000BBFC40F60A213D2001F0B6FC322002F09E
:1056B000D1FD0021502001F0AFFCEF21512001F07D
:1056C000ABFC0021522001F0A7FC40F23F11532017
:1056D00001F0A2FC4FF42741602001F09DFC012164
:1056E000612001F099FC00216A2001F095FC002165
:1056F000802001F091FC0021812001F08DFC00212F
:10570000822001F089FC0021832001F085FC00212A
:10571000842001F081FC0021852001F07DFC102116
:10572000902001F079FC4FF4C061922001F074FCEC
:1057300040F23311072001F06FFC24E61148808805
:1057400049F2203188427DD10021084601F064FCF5
:105750004FF48071012001F05FFC4FF4E061022002
:1057600001F05AFC41F23001032001F055FC002108
:10577000042001F051FC40F20221082001F04CFC11
:10578000002101E0B0010020092001F045FC0021CA
:105790000A2001F041FC01210C2001F03DFC002118
:1057A0000D2001F039FC00210F2001F035FC3220E2
:1057B00002F050FD40F20111072001F02DFC3220D3
:1057C00002F048FD4FF48651102001F025FC07211E
:1057D000112001F021FC4FF48871122001F01CFC13
:1057E0004FF43061132001F017FC0021292001F053
:1057F00013FC44F210012B2001F00EFC002150207C
:1058000001F00AFCEF21512001F006FC002152209A
:1058100001F002FC40F23F11532001F0FDFB4FF478
:105820001C51602001F0F8FB0121612001F0F4FB24
:1058300000216A2001F0F0FB0021802001F0ECFB48
:10584000002100E031E0812001F0E6FB0021822010
:1058500001F0E2FB0021832001F0DEFB0021842027
:1058600001F0DAFB0021852001F0D6FB1021902009
:1058700001F0D2FB0021922001F0CEFB0121932008
:1058800001F0CAFB4FF48871952001F0C5FB00219F
:10589000972001F0C1FB0021982001F0BDFB40F2F0
:1058A0007311072001F0B8FB6DE5FE48808849F2CE
:1058B000313188427DD141F21401E72001F0ACFB87
:1058C0004FF48071012001F0A7FB4FF4007102201A
:1058D00001F0A2FB41F23801032001F09DFB40F2F0
:1058E0000221082001F098FB0021092001F094FB1F
:1058F00000210A2001F090FB00210C2001F08CFB1C
:1059000000210D2001F088FB00210F2001F084FB15
:105910000021102001F080FB0721112001F07CFB09
:105920000021122001F078FB0021132001F074FB0C
:10593000C82002F08FFC41F29061102001F06CFB56
:1059400040F22721112001F067FB322002F082FC97
:105950000C21122001F060FB322002F07BFC4FF49E
:105960000061132001F058FB1121292001F054FBA4
:105970000B212B2001F050FB322002F06BFC0021A8
:10598000202001F049FB40F23F11212001F044FBAF
:105990000021302001F040FB4FF48371312001F0F1
:1059A0003BFB0021322001F037FB4FF40171352021
:1059B00000E064E001F030FB41F20A61362001F0C2
:1059C0002BFB40F20771372001F026FB4FF4837167
:1059D000382001F021FB40F20771392001F01CFB57
:1059E00040F202413C2001F017FB40F60F413D2000
:1059F00001F012FB0021502001F00EFBEF2151209D
:105A000001F00AFB0021522001F006FB40F23F1199
:105A1000532001F001FB4FF41C51602001F0FCFA0F
:105A20000121612001F0F8FA00216A2001F0F4FA66
:105A30000021802001F0F0FA0021812001F0ECFA31
:105A40000021822001F0E8FA0021832001F0E4FA2D
:105A50000021842001F0E0FA0021852001F0DCFA29
:105A60001021902001F0D8FA4FF4C061922001F08B
:105A7000D3FA40F23311072001F0CEFA83E48948CB
:105A8000808845F2084188427ED14FF48071012020
:105A900001F0C2FA4FF4E061022001F0BDFA41F2D8
:105AA0003001032001F0B8FA0021042001F0B4FA1B
:105AB00040F20721082001F0AFFA0021092001F08F
:105AC000ABFA00210A2001F0A7FA00210C2001F016
:105AD000A3FA00210D2001F09FFA00210F2001F010
